:100000000C9462000C948A000C948A000C948A0070
:100010000C948A000C948A000C948A000C948A0038
:100020000C948A000C948A000C948A000C948A0028
:100030000C948A000C948A000C948A000C948A0018
:100040000C94CD060C948A000C943D070C94170771
:100050000C948A000C948A000C948A000C948A00F8
:100060000C94AE050C948A000000000024002700C8
:100070002A0000000000250028002B0000000000DE
:1000800023002600290004040404040404040202DA
:100090000202020203030303030301020408102007
:1000A0004080010204081020010204081020000012
:1000B0000008000201000003040700000000000027
:1000C00000006F0711241FBECFEFD8E0DEBFCDBF09
:1000D00011E0A0E0B1E0E6E2F9E102C005900D9286
:1000E000AC36B107D9F722E0ACE6B1E001C01D9211
:1000F000A63FB207E1F710E0C2E6D0E004C02197C6
:10010000FE010E94300AC136D107C9F70E94CA0712
:100110000C94910C0C9400002091E301260F3327DE
:10012000331F21323105ECF420910902FC0190E0EB
:1001300080E0243069F082E00895A091E3012191EC
:10014000AC014F535E4FA40FB52FB11D2C930196F8
:10015000861798F38091E301680F6093E30180E0D4
:10016000089581E00895089508950895E091B801F3
:100170008091B701E81730F4F0E0E956FE4F808136
:1001800090E008958FEF9FEF08959091B8018091CE
:10019000B7012FEF3FEF981748F4E92FF0E0E95649
:1001A000FE4F208130E09F5F9093B801C901089510
:1001B0008091B7019091B801891B990B0895CF9256
:1001C000DF92EF92FF920F931F93CF93DF937C0107
:1001D000CB018A0120919601222389F0EB016B016A
:1001E000C40ED51ECC15DD0569F06991D701ED91DE
:1001F000FC910190F081E02DC7010995F3CF642FA8
:100200000E948C00C801DF91CF911F910F91FF9048
:10021000EF90DF90CF900895CF93DF931F92CDB7EB
:10022000DEB76983209196012223F9F02091B9016C
:10023000203258F021E030E0FC013383228390E04B
:1002400080E00F90DF91CF9108958091BA01E82F5F
:10025000F0E0EA58FE4F998190838F5F8093BA0156
:100260008093B90181E090E0ECCF61E0CE0101968E
:100270000E948C00F7CF833081F028F4813099F010
:100280008230A9F008958730A9F08830C9F0843011
:10029000B1F4809180008F7D03C0809180008F77C2
:1002A00080938000089584B58F7784BD089584B5C8
:1002B0008F7DFBCF8091B0008F778093B000089541
:1002C0008091B0008F7DF9CFCF93DF93282F30E05E
:1002D000F901E255FF4F8491F901E656FF4FD491A1
:1002E000F901EA57FF4FC491CC23A1F081110E947C
:1002F0003B01EC2FF0E0EE0FFF1FE458FF4FA591FC
:10030000B491EC91ED2381E090E009F480E0DF917D
:10031000CF91089580E090E0FACF1F93CF93DF93C1
:10032000282F30E0F901E255FF4F8491F901E6569C
:10033000FF4FD491F901EA57FF4FC491CC23A9F0A4
:10034000162F81110E943B01EC2FF0E0EE0FFF1FF2
:10035000EE58FF4FA591B4918FB7F894EC9111111D
:1003600008C0D095DE23DC938FBFDF91CF911F9122
:100370000895DE2BF8CF1092090281E080930B02E2
:1003800010920A0261E082E10E948D0161E083E146
:100390000E948D01E9EBF0E080818E7F8083808177
:1003A0008D7F808388E48093B80085E48093BC00CF
:1003B0000895CF93DF9391E09093C0018823B9F023
:1003C000C091B800D091BA008091BC008A7B809324
:1003D000BC0060E082E10E948D0160E083E10E9448
:1003E0008D010E94BB01D093BA00C093B800DF9189
:1003F000CF9108953FB7F894809172019091730165
:10040000A0917401B091750126B5A89B05C02F3F3E
:1004100019F00196A11DB11D3FBFBA2FA92F982F2A
:100420008827BC01CD01620F711D811D911D42E025
:10043000660F771F881F991F4A95D1F708958F92ED
:100440009F92AF92BF92CF92DF92EF92FF926B0199
:100450007C010E94FA014B015C01C114D104E1044A
:10046000F104B9F00E94FA01681979098A099B0917
:10047000683E73408105910580F321E0C21AD108DE
:10048000E108F10888EE880E83E0981EA11CB11CDB
:10049000E4CFFF90EF90DF90CF90BF90AF909F9010
:1004A0008F900895AF92BF92CF92DF92EF92FF921A
:1004B0000F931F93CF93DF936C017B018B01040F8C
:1004C000151FEB015E01AE18BF08C017D10759F028
:1004D0006991D601ED91FC910190F081E02DC6016A
:1004E0000995892B79F7C501DF91CF911F910F9164
:1004F000FF90EF90DF90CF90BF90AF900895FC01F8
:10050000538D448D252F30E0842F90E0821B930B78
:10051000541710F0CF96089501970895FC01918D1E
:10052000828D981761F0A28DAE0FBF2FB11D5D9621
:100530008C91928D9F5F9F73928F90E008958FEFC3
:100540009FEF0895FC01918D828D981731F0828D77
:10055000E80FF11D858D90E008958FEF9FEF0895CE
:10056000FC01918D228D892F90E0805C9F4F821B32
:1005700091098F73992708958BE392E00E94B0024E
:1005800021E0892B09F420E0822F089580E090E09B
:10059000892B29F00E94BC0281110C94000008955F
:1005A000FC01A48DA80FB92FB11DA35ABF4F2C91E8
:1005B000848D90E001968F739927848FA689B789DF
:1005C0002C93A089B1898C91837080648C93938DD6
:1005D000848D981306C00288F389E02D80818F7D79
:1005E00080830895EF92FF920F931F93CF93DF9331
:1005F000EC0181E0888F9B8D8C8D98131AC0E8895F
:10060000F989808185FF15C09FB7F894EE89FF892D
:100610006083E889F98980818370806480839FBFCB
:1006200081E090E0DF91CF911F910F91FF90EF90CB
:100630000895F62E0B8D10E00F5F1F4F0F731127DB
:10064000E02E8C8D8E110CC00FB607FCFACFE88916
:10065000F989808185FFF5CFCE010E94D002F1CFCC
:10066000EB8DEC0FFD2FF11DE35AFF4FF0829FB78A
:10067000F8940B8FEA89FB8980818062CFCFCF937A
:10068000DF93EC01888D8823B9F0AA89BB89E889BA
:10069000F9898C9185FD03C0808186FD0DC00FB660
:1006A00007FCF7CF8C9185FFF2CF808185FFEDCFDE
:1006B000CE010E94D002E9CFDF91CF910895CF9271
:1006C000DF92EF92FF920F931F93CF93DF93FC0182
:1006D000C48121E020939601C0936C011092BA016D
:1006E0001092B9018485682B8FE292E00E940C0180
:1006F000D091B901D13208F092C00E94FA016B0189
:100700007C0180910902811165C082E08093090219
:1007100081E080930B028FEF8093080210922D02EC
:10072000D0932C02A6E7B1E0ECE0F2E080E0D81331
:1007300085C010922E0280912E02CC0FC82BC09340
:100740002E0280910A02813009F07CC010920A02C8
:100750000E94FA016B017C0180912E028093BB0004
:100760008091BC019091BD01A091BE01B091BF01EB
:10077000892B8A2B8B2B99F00E94FA010091BC01E6
:100780001091BD012091BE013091BF016C197D090E
:100790008E099F090617170728073907E0F180918E
:1007A000BC0083FDD9CF85EC8093BC000E94FA0188
:1007B0006B017C0180910902823009F445C080916F
:1007C00008028F3F61F180910802803241F18091EF
:1007D000080225C08091BC019091BD01A091BE018D
:1007E000B091BF01892B8A2B8B2B09F48ACF0E94F1
:1007F000FA010091BC011091BD012091BE01309120
:10080000BF016C197D098E099F0906171707280774
:10081000390708F076CF8091BB010E94D901109270
:10082000BA011092B90110929601DF91CF911F91F8
:100830000F91FF90EF90DF90CF9008959D9191934D
:100840008F5F75CF85EEB0CF8091BC019091BD01D7
:10085000A091BE01B091BF01892B8A2B8B2B09F48B
:10086000A9CF0E94FA010091BC011091BD01209115
:10087000BE013091BF016C197D098E099F090617D1
:1008800017072807390708F095CFC5CF089590E0DE
:1008900080E008950895FF920F931F93CF93DF9305
:1008A000F82E062FC7E0D0E010E061E0802F0E9414
:1008B0008D018F2D0E9464010C2E01C0880F0A94B7
:1008C000EAF7182B60E0802F0E948D01219768F7CE
:1008D000812FDF91CF911F910F91FF900895EF929B
:1008E000FF920F931F93CF93DF938091E8020E94B2
:1008F0006401892B31F060E070E0CB010E941F029F
:10090000F4CFDFB7F8946091E7028091E8020E948B
:100910004B04082F6091E7028091E8020E944B048B
:10092000C82F6091E7028091E8020E944B04182FC3
:10093000F12CE12C8091E9028E151F0479F070F002
:1009400061E08091E7020E948D0160E08091E70202
:100950000E948D018FEFE81AF80AECCFDFBF6C2FF1
:1009600070E090E080E0982F872F762F6627802B0D
:10097000612B000F000B10E030E020E0302F222729
:1009800011270027602B712B822B932BDF91CF91A6
:100990001F910F91FF90EF9008950F931F93CF93A6
:1009A0008C01C62F0E945F036C2F6460C8010E94F7
:1009B0005F036C2F6B7FC8010E945F0383EC90E0A4
:1009C0000197F1F7CF911F910F9108950F931F9306
:1009D000CF93DF938C01D62FC42F607F642B0E94AE
:1009E000CD0480E1D89FB00111246C2BC801DF91A8
:1009F000CF911F910F910C94CD0440E060E888EDF9
:100A000092E00C94E60440E061E088ED92E00E9400
:100A1000E6048BE39FE10197F1F78091E1028111F8
:100A20000C94FD04089541E00E94E60481E090E00A
:100A3000089585ED8093BC008091BC019091BD012B
:100A4000A091BE01B091BF010796A11DB11D23E089
:100A5000B695A795979587952A95D1F72091BC00D3
:100A600024FD03C01092090208954091BC015091E9
:100A7000BD016091BE017091BF01452B462B472BF4
:100A800069F30097A105B10541F025E32A95F1F737
:100A900000000197A109B109E1CF8091BB010C943D
:100AA000D901FB0101900020E9F73197AF01461B06
:100AB000570BDC01ED91FC910280F381E02D09944C
:100AC0008F929F92AF92BF92EF92FF920F931F93DC
:100AD000CF93DF93CDB7DEB7A1970FB6F894DEBF03
:100AE0000FBECDBF7C01FA01CB0119A2223008F460
:100AF0002AE08E010F5D1F4F822E912CB12CA12C6C
:100B0000BF01A50194010E94EF09F901CA016A30F1
:100B10000CF5605DD8016E938D01232B242B252BC2
:100B200079F790E080E0109721F0BD01C7010E94A5
:100B30005105A1960FB6F894DEBF0FBECDBFDF9171
:100B4000CF911F910F91FF90EF90BF90AF909F902A
:100B50008F900895695CDECF0C94080C1F920F9261
:100B60000FB60F9211242F933F934F935F936F9380
:100B70007F938F939F93AF93BF93EF93FF93809156
:100B8000B900887F803609F44AC0F0F5883209F44C
:100B9000A7C018F5803109F49BC0B8F4882309F484
:100BA000F9C0883009F494C0FF91EF91BF91AF91E3
:100BB0009F918F917F916F915F914F913F912F9175
:100BC0000F900FBE0F901F901895883109F488C0C0
:100BD000803251F78093080214C0803409F49DC01C
:100BE00040F48033B9F38833F9F68093080285EC3A
:100BF000B0C0803509F485C0883509F496C08834C2
:100C000099F60E941905D0CF883909F48CC038F5BF
:100C1000883729F050F4883611F0803729F683E0C0
:100C2000809309021092070257C0883809F47BC0EC
:100C3000803919F0803809F0B7CF809107028032EF
:100C400008F071C0E091070281E08E0F80930702E7
:100C50008091BB00F0E0E951FE4F80833DC0803BB6
:100C600039F0E0F4803A09F479C0883A09F09CCF71
:100C700084E0809309021092E4011092E301E09174
:100C8000E101F091E20109958091E30181110FC02A
:100C900081E08093E3011092C10109C0803C09F416
:100CA000A6CF883C09F4A3CF883B09F07DCFE09123
:100CB000E40181E08E0F8093E401F0E0EF53FE4FFA
:100CC00080818093BB009091E4018091E30129C071
:100CD00080912E028093BB0085EC8093BC0064CF92
:100CE00090912D0280912C02981758F5E0912D02D9
:100CF00081E08E0F80932D02F0E0E45FFD4F808154
:100D0000E9CFE0912D0281E08E0F80932D0280913A
:100D1000BB00F0E0E45FFD4F808390912D02809155
:100D20002C029817C8F285E8D8CFE0912D0281E017
:100D30008E0F80932D028091BB00F0E0E45FFD4FA9
:100D4000808380910B0281115CCF81E080930A0245
:100D500084EA8093BC001092090226CF85EC809330
:100D6000BC001092090280910702803230F4E091B9
:100D70000702F0E0E951FE4F10826091070270E037
:100D8000E091E501F091E60187EE91E0099510927E
:100D900007020ACF1092080234CF1F920F920FB6AB
:100DA0000F9211242F933F938F939F93AF93BF93F1
:100DB00080916E0190916F01A0917001B0917101CD
:100DC00030916D0123E0230F2D3758F50196A11DB9
:100DD000B11D20936D0180936E0190936F01A093DC
:100DE0007001B09371018091720190917301A09193
:100DF0007401B09175010196A11DB11D809372011E
:100E000090937301A0937401B0937501BF91AF915A
:100E10009F918F913F912F910F900FBE0F901F9038
:100E2000189526E8230F0296A11DB11DD2CF1F925F
:100E30000F920FB60F9211242F933F934F935F930E
:100E40006F937F938F939F93AF93BF93EF93FF9392
:100E50008BE392E00E94D002FF91EF91BF91AF919E
:100E60009F918F917F916F915F914F913F912F91C2
:100E70000F900FBE0F901F9018951F920F920FB6F4
:100E80000F9211242F938F939F93EF93FF93E091F1
:100E90004B02F0914C028081E0915102F09152029C
:100EA00082FD1BC09081809154028F5F8F732091CF
:100EB0005502821741F0E0915402F0E0E55CFD4FED
:100EC000958F80935402FF91EF919F918F912F9175
:100ED0000F900FBE0F901F9018958081F4CFEFE216
:100EE000F2E01382128288EE93E0A0E0B0E0848307
:100EF0009583A683B7832AE031E031832083EBE337
:100F0000F2E01382128284839583A683B7838CE1F7
:100F100091E09183808385EC90E09587848784ECD1
:100F200090E09787868780EC90E0918B808B81ECB6
:100F300090E0938B828B82EC90E0958B848B86EC97
:100F400090E0978B868B118E128E138E148EE5EEA9
:100F5000F2E08AE391E09183808315821682178202
:100F6000108680E090E0A0E8BFE381879287A387A6
:100F7000B487E8EDF2E0138212828EE291E0918371
:100F80008083118687E2848380E1828782E0838781
:100F900014860895789484B5826084BD84B5816098
:100FA00084BD85B5826085BD85B5816085BD809134
:100FB0006E00816080936E001092810080918100AC
:100FC00082608093810080918100816080938100A4
:100FD000809180008160809380008091B100846066
:100FE0008093B1008091B00081608093B0008091C7
:100FF0007A00846080937A0080917A008260809386
:101000007A0080917A00816080937A0080917A00E2
:10101000806880937A001092C100E0914B02F091B9
:101020004C0282E08083E0914702F09148021082F6
:10103000E0914902F0914A0280E1808310925302CC
:10104000E0914F02F091500296E09083E0914D02C2
:10105000F0914E02808180618083E0914D02F09199
:101060004E02808188608083E0914D02F0914E02B3
:10107000808180688083E0914D02F0914E028081F2
:101080008F7D80839093E70285E08093E802E0EA19
:10109000F0E02491ECE8F0E08491882399F090E06E
:1010A000880F991FFC01E859FF4FA591B491FC01ED
:1010B000EE58FF4F859194918FB7F894EC91E22B05
:1010C000EC938FBF8091E80290E0FC01E656FF4F61
:1010D00024918A579F4FFC0184918823C1F090E0AE
:1010E000880F991FFC01E859FF4FC591D491FC016D
:1010F000EE58FF4FA591B4919FB7F8948881E22FE5
:10110000E0958E2388838C91E823EC939FBF81E048
:101110008093E9021092B8011092B7011092BA01BF
:101120001092B9010E94BB0183EB90E09093E20121
:101130008093E10184EB90E09093E6018093E501D8
:101140001092DD028091E302823018F098E09093D3
:10115000DD028093E00262E370E080E090E00E94B4
:101160001F026091E40288ED92E00E945F0368EE46
:1011700073E080E090E00E941F0260E388ED92E05F
:101180000E94CD04CBE4D6E4CE010197F1F760E3F1
:1011900088ED92E00E94CD042197F1F760E388ED9D
:1011A00092E00E94CD0483E592E00197F1F760E2BE
:1011B00088ED92E00E94CD046091DD02606240E023
:1011C00088ED92E00E94E60484E08093DE0240E035
:1011D0006CE088ED92E00E94E6040E94030582E044
:1011E0008093DF0240E066E088ED92E00E94E60432
:1011F00040E062E088ED92E00E94E6048BE39FE12C
:101200000197F1F788E08093E40260E088ED92E0D6
:101210000E945F038AE097E1AFE4B3E48093EE02BB
:101220009093EF02A093F002B093F102CAE0C12CB8
:10123000D12C76010E946F04C60ED71EE81EF91E3F
:1012400060E070E0CB010E941F02C15099F7C70116
:10125000B6012AE030E040E050E00E94110ACA01E5
:10126000B9010E94E00A0E94A80A6093EA02709302
:10127000EB028093EC029093ED0288E0882E912C93
:10128000A12CB12CC0E0D0E08091E8020E94640162
:10129000892B09F091C018E0C12CD12C76010E9455
:1012A0006F04C60ED71EE81EF91E60E070E0CB0189
:1012B0000E941F02115099F7C701B601A5019401C0
:1012C0000E94110A8091EA029091EB02A091EC0237
:1012D000B091ED0279018A01E81AF90A0A0B1B0B99
:1012E000C801B7010E94E00A2091EE023091EF029E
:1012F0004091F0025091F1020E94360A0E94A80A21
:101300006B017C016EE371E08BE392E00E9451057A
:101310002AE0B701A601F7FE0DC06DE28BE392E073
:101320000E94F20244275527BA014C195D096E0943
:101330007F092AE08BE392E00E9460056EE471E091
:101340008BE392E00E9451050E9403050E94FD0478
:1013500061E571E088ED92E00E9451052AE0B70155
:10136000A601F7FE0EC041E06DE288ED92E00E941A
:10137000E60444275527BA014C195D096E097F0917
:101380002AE088ED92E00E94600569E571E088ED51
:1013900092E00E94510568EE73E080E090E00E94C8
:1013A0001F02209709F470CF0E94BC02882309F421
:1013B0006BCF0E94000068CF6BE571E08BE392E099
:1013C0000E9451056EE471E08BE392E00E945105AA
:1013D0000E9403050E94FD046BE571E0D8CFA1E2F5
:1013E0001A2EAA1BBB1BFD010DC0AA1FBB1FEE1F9F
:1013F000FF1FA217B307E407F50720F0A21BB30BEA
:10140000E40BF50B661F771F881F991F1A9469F765
:1014100060957095809590959B01AC01BD01CF01C1
:101420000895052E97FB1EF400940E94280A57FD8C
:1014300007D00E94EF0907FC03D04EF40C94280A51
:1014400050954095309521953F4F4F4F5F4F0895F0
:1014500090958095709561957F4F8F4F9F4F089520
:10146000EE0FFF1F0590F491E02D09940E944A0AA7
:101470000C94320B0E942B0B58F00E94240B40F06E
:1014800029F45F3F29F00C941B0B51110C94660B4F
:101490000C94210B0E94430B68F39923B1F355235D
:1014A00091F3951B550BBB27AA2762177307840777
:1014B00038F09F5F5F4F220F331F441FAA1FA9F30D
:1014C00035D00E2E3AF0E0E832D091505040E695FB
:1014D000001CCAF72BD0FE2F29D0660F771F881F5C
:1014E000BB1F261737074807AB07B0E809F0BB0B4F
:1014F000802DBF01FF2793585F4F3AF09E3F510563
:1015000078F00C941B0B0C94660B5F3FE4F3983E51
:10151000D4F3869577956795B795F7959F5FC9F74B
:10152000880F911D9695879597F90895E1E0660FCC
:10153000771F881FBB1F621773078407BA0720F045
:10154000621B730B840BBA0BEE1F88F7E0950895AE
:101550000E94AF0A6894B1110C94660B08950E9422
:101560004B0B88F09F5798F0B92F9927B751B0F0DF
:10157000E1F0660F771F881F991F1AF0BA95C9F717
:1015800014C0B13091F00E94650BB1E008950C9445
:10159000650B672F782F8827B85F39F0B93FCCF3F8
:1015A000869577956795B395D9F73EF49095809594
:1015B000709561957F4F8F4F9F4F0895E89409C0B4
:1015C00097FB3EF490958095709561957F4F8F4F76
:1015D0009F4F9923A9F0F92F96E9BB279395F6958C
:1015E000879577956795B795F111F8CFFAF4BB0F0A
:1015F00011F460FF1BC06F5F7F4F8F4F9F4F16C06E
:10160000882311F096E911C0772321F09EE8872FF7
:10161000762F05C0662371F096E8862F70E060E0B3
:101620002AF09A95660F771F881FDAF7880F96952C
:10163000879597F9089597F99F6780E870E060E0D3
:1016400008959FEF80EC089500240A94161617065B
:1016500018060906089500240A94121613061406A3
:1016600005060895092E0394000C11F4882352F006
:10167000BB0F40F4BF2B11F460FF04C06F5F7F4FBE
:101680008F4F9F4F089557FD9058440F551F59F0A5
:101690005F3F71F04795880F97FB991F61F09F3F5F
:1016A00079F087950895121613061406551FF2CF88
:1016B0004695F1DF08C0161617061806991FF1CFD8
:1016C00086957105610508940895E894BB276627FF
:1016D0007727CB0197F908950F931F93CF93DF934B
:1016E0008230910510F482E090E0E091F402F091F4
:1016F000F50230E020E0B0E0A0E0309799F4211549
:10170000310509F44AC0281B390B24303105D8F5BE
:101710008A819B816115710589F1FB019383828325
:10172000FE0111C040815181028113814817590780
:10173000E0F04817590799F4109761F012960C934E
:10174000129713961C933296CF01DF91CF911F9180
:101750000F9108950093F4021093F502F4CF211530
:10176000310551F04217530738F0A901DB019A0106
:10177000BD01DF01F801C1CFEF01F9CF9093F50270
:101780008093F402CDCFFE01E20FF31F819391937A
:101790002250310939832883D7CF2091F20230912A
:1017A000F302232B41F42091020130910301309385
:1017B000F3022093F20220910001309101012115E2
:1017C000310541F42DB73EB7409104015091050118
:1017D000241B350BE091F202F091F302E217F307BC
:1017E000A0F42E1B3F0B2817390778F0AC014E5F91
:1017F0005F4F2417350748F04E0F5F1F5093F302D9
:101800004093F202819391939FCFF0E0E0E09CCF70
:10181000CF93DF930097E9F0FC0132971382128295
:10182000A091F402B091F502ED0130E020E01097B4
:10183000A1F420813181820F931F2091F202309117
:10184000F3022817390709F061C0F093F302E0931F
:10185000F202DF91CF910895EA01CE17DF07E8F594
:101860004A815B819E0141155105B1F7E901FB8376
:10187000EA8349915991C40FD51FEC17FD0761F414
:10188000808191810296840F951FE9019983888355
:10189000828193819B838A83F0E0E0E012968D91B0
:1018A0009C9113970097B9F52D913C911197CD011B
:1018B0000296820F931F2091F2023091F3022817B3
:1018C000390739F6309751F51092F5021092F4026B
:1018D000B093F302A093F202BCCFD383C2834081C2
:1018E0005181840F951FC817D90761F44E5F5F4F70
:1018F00088819981480F591F518340838A819B8138
:10190000938382832115310509F0B0CFF093F5025E
:10191000E093F4029ECFFD01DC01C0CF138212825E
:06192000D7CFF894FFCFC1
:101926000000F6028000000000000C01DF00470402
:10193600B500D800C500B60000000000F202520251
:101946007F023F03B0028E02A202000000001305D0
:10195600520247044604000000004A04AC054858F9
:101966003731312072656164696E673A20000D0A6D
:10197600005765696768743A00670048583731311F
:0C198600206E6F7420666F756E642E007A
:00000001FF
